{
  "_format": "hh-sol-artifact-1",
  "contractName": "MyToken",
  "sourceName": "contracts/MyToken.sol",
  "abi": [
    {
      "inputs": [],
      "stateMutability": "nonpayable",
      "type": "constructor"
    },
    {
      "anonymous": false,
      "inputs": [
        {
          "indexed": true,
          "internalType": "address",
          "name": "owner",
          "type": "address"
        },
        {
          "indexed": true,
          "internalType": "address",
          "name": "approved",
          "type": "address"
        },
        {
          "indexed": true,
          "internalType": "uint256",
          "name": "tokenId",
          "type": "uint256"
        }
      ],
      "name": "Approval",
      "type": "event"
    },
    {
      "anonymous": false,
      "inputs": [
        {
          "indexed": true,
          "internalType": "address",
          "name": "owner",
          "type": "address"
        },
        {
          "indexed": true,
          "internalType": "address",
          "name": "operator",
          "type": "address"
        },
        {
          "indexed": false,
          "internalType": "bool",
          "name": "approved",
          "type": "bool"
        }
      ],
      "name": "ApprovalForAll",
      "type": "event"
    },
    {
      "anonymous": false,
      "inputs": [
        {
          "indexed": true,
          "internalType": "address",
          "name": "orgAddress",
          "type": "address"
        },
        {
          "indexed": false,
          "internalType": "string",
          "name": "name",
          "type": "string"
        }
      ],
      "name": "OrganizationRegistered",
      "type": "event"
    },
    {
      "anonymous": false,
      "inputs": [
        {
          "indexed": true,
          "internalType": "address",
          "name": "from",
          "type": "address"
        },
        {
          "indexed": true,
          "internalType": "address",
          "name": "to",
          "type": "address"
        },
        {
          "indexed": true,
          "internalType": "uint256",
          "name": "tokenId",
          "type": "uint256"
        }
      ],
      "name": "Transfer",
      "type": "event"
    },
    {
      "inputs": [
        {
          "internalType": "bytes32",
          "name": "",
          "type": "bytes32"
        }
      ],
      "name": "Ministers",
      "outputs": [
        {
          "internalType": "address",
          "name": "",
          "type": "address"
        }
      ],
      "stateMutability": "view",
      "type": "function"
    },
    {
      "inputs": [
        {
          "internalType": "address",
          "name": "",
          "type": "address"
        }
      ],
      "name": "Organizations",
      "outputs": [
        {
          "internalType": "bytes32",
          "name": "",
          "type": "bytes32"
        }
      ],
      "stateMutability": "view",
      "type": "function"
    },
    {
      "inputs": [
        {
          "internalType": "bytes32",
          "name": "",
          "type": "bytes32"
        },
        {
          "internalType": "bytes32",
          "name": "",
          "type": "bytes32"
        }
      ],
      "name": "Sertificates",
      "outputs": [
        {
          "internalType": "bool",
          "name": "",
          "type": "bool"
        }
      ],
      "stateMutability": "view",
      "type": "function"
    },
    {
      "inputs": [
        {
          "internalType": "address",
          "name": "to",
          "type": "address"
        },
        {
          "internalType": "uint256",
          "name": "tokenId",
          "type": "uint256"
        }
      ],
      "name": "approve",
      "outputs": [],
      "stateMutability": "nonpayable",
      "type": "function"
    },
    {
      "inputs": [
        {
          "internalType": "address",
          "name": "owner",
          "type": "address"
        }
      ],
      "name": "balanceOf",
      "outputs": [
        {
          "internalType": "uint256",
          "name": "",
          "type": "uint256"
        }
      ],
      "stateMutability": "view",
      "type": "function"
    },
    {
      "inputs": [
        {
          "internalType": "string",
          "name": "_name",
          "type": "string"
        }
      ],
      "name": "createOrganization",
      "outputs": [],
      "stateMutability": "nonpayable",
      "type": "function"
    },
    {
      "inputs": [
        {
          "internalType": "uint256",
          "name": "tokenId",
          "type": "uint256"
        }
      ],
      "name": "getApproved",
      "outputs": [
        {
          "internalType": "address",
          "name": "",
          "type": "address"
        }
      ],
      "stateMutability": "view",
      "type": "function"
    },
    {
      "inputs": [
        {
          "internalType": "address",
          "name": "owner",
          "type": "address"
        },
        {
          "internalType": "address",
          "name": "operator",
          "type": "address"
        }
      ],
      "name": "isApprovedForAll",
      "outputs": [
        {
          "internalType": "bool",
          "name": "",
          "type": "bool"
        }
      ],
      "stateMutability": "view",
      "type": "function"
    },
    {
      "inputs": [],
      "name": "name",
      "outputs": [
        {
          "internalType": "string",
          "name": "",
          "type": "string"
        }
      ],
      "stateMutability": "view",
      "type": "function"
    },
    {
      "inputs": [],
      "name": "owner",
      "outputs": [
        {
          "internalType": "address",
          "name": "",
          "type": "address"
        }
      ],
      "stateMutability": "view",
      "type": "function"
    },
    {
      "inputs": [
        {
          "internalType": "uint256",
          "name": "tokenId",
          "type": "uint256"
        }
      ],
      "name": "ownerOf",
      "outputs": [
        {
          "internalType": "address",
          "name": "",
          "type": "address"
        }
      ],
      "stateMutability": "view",
      "type": "function"
    },
    {
      "inputs": [
        {
          "internalType": "address",
          "name": "from",
          "type": "address"
        },
        {
          "internalType": "address",
          "name": "to",
          "type": "address"
        },
        {
          "internalType": "uint256",
          "name": "tokenId",
          "type": "uint256"
        },
        {
          "internalType": "bytes",
          "name": "data",
          "type": "bytes"
        }
      ],
      "name": "safeTransferFrom",
      "outputs": [],
      "stateMutability": "nonpayable",
      "type": "function"
    },
    {
      "inputs": [
        {
          "internalType": "address",
          "name": "operator",
          "type": "address"
        },
        {
          "internalType": "bool",
          "name": "approved",
          "type": "bool"
        }
      ],
      "name": "setApprovalForAll",
      "outputs": [],
      "stateMutability": "nonpayable",
      "type": "function"
    },
    {
      "inputs": [
        {
          "internalType": "bytes4",
          "name": "interfaceId",
          "type": "bytes4"
        }
      ],
      "name": "supportsInterface",
      "outputs": [
        {
          "internalType": "bool",
          "name": "",
          "type": "bool"
        }
      ],
      "stateMutability": "view",
      "type": "function"
    },
    {
      "inputs": [],
      "name": "symbol",
      "outputs": [
        {
          "internalType": "string",
          "name": "",
          "type": "string"
        }
      ],
      "stateMutability": "view",
      "type": "function"
    },
    {
      "inputs": [
        {
          "internalType": "uint256",
          "name": "index",
          "type": "uint256"
        }
      ],
      "name": "tokenByIndex",
      "outputs": [
        {
          "internalType": "uint256",
          "name": "",
          "type": "uint256"
        }
      ],
      "stateMutability": "view",
      "type": "function"
    },
    {
      "inputs": [
        {
          "internalType": "address",
          "name": "owner",
          "type": "address"
        },
        {
          "internalType": "uint256",
          "name": "index",
          "type": "uint256"
        }
      ],
      "name": "tokenOfOwnerByIndex",
      "outputs": [
        {
          "internalType": "uint256",
          "name": "",
          "type": "uint256"
        }
      ],
      "stateMutability": "view",
      "type": "function"
    },
    {
      "inputs": [
        {
          "internalType": "uint256",
          "name": "tokenId",
          "type": "uint256"
        }
      ],
      "name": "tokenURI",
      "outputs": [
        {
          "internalType": "string",
          "name": "",
          "type": "string"
        }
      ],
      "stateMutability": "view",
      "type": "function"
    },
    {
      "inputs": [],
      "name": "totalSupply",
      "outputs": [
        {
          "internalType": "uint256",
          "name": "",
          "type": "uint256"
        }
      ],
      "stateMutability": "view",
      "type": "function"
    },
    {
      "inputs": [
        {
          "internalType": "address",
          "name": "from",
          "type": "address"
        },
        {
          "internalType": "address",
          "name": "to",
          "type": "address"
        },
        {
          "internalType": "uint256",
          "name": "tokenId",
          "type": "uint256"
        }
      ],
      "name": "transferFrom",
      "outputs": [],
      "stateMutability": "nonpayable",
      "type": "function"
    }
  ],
  "bytecode": "0x608060405234801561001057600080fd5b506040518060400160405280600781526020017f4d79546f6b656e000000000000000000000000000000000000000000000000008152506040518060400160405280600381526020017f4d544b0000000000000000000000000000000000000000000000000000000000815250816000908161008c9190610335565b50806001908161009c9190610335565b50505033600960006101000a81548173ffffffffffffffffffffffffffffffffffffffff021916908373ffffffffffffffffffffffffffffffffffffffff160217905550610407565b600081519050919050565b7f4e487b7100000000000000000000000000000000000000000000000000000000600052604160045260246000fd5b7f4e487b7100000000000000000000000000000000000000000000000000000000600052602260045260246000fd5b6000600282049050600182168061016657607f821691505b6020821081036101795761017861011f565b5b50919050565b60008190508160005260206000209050919050565b60006020601f8301049050919050565b600082821b905092915050565b6000600883026101e17fffffffffffffffffffffffffffffffffffffffffffffffffffffffffffffffff826101a4565b6101eb86836101a4565b95508019841693508086168417925050509392505050565b6000819050919050565b6000819050919050565b600061023261022d61022884610203565b61020d565b610203565b9050919050565b6000819050919050565b61024c83610217565b61026061025882610239565b8484546101b1565b825550505050565b600090565b610275610268565b610280818484610243565b505050565b5b818110156102a45761029960008261026d565b600181019050610286565b5050565b601f8211156102e9576102ba8161017f565b6102c384610194565b810160208510156102d2578190505b6102e66102de85610194565b830182610285565b50505b505050565b600082821c905092915050565b600061030c600019846008026102ee565b1980831691505092915050565b600061032583836102fb565b9150826002028217905092915050565b61033e826100e5565b67ffffffffffffffff811115610357576103566100f0565b5b610361825461014e565b61036c8282856102a8565b600060209050601f83116001811461039f576000841561038d578287015190505b6103978582610319565b8655506103ff565b601f1984166103ad8661017f565b60005b828110156103d5578489015182556001820191506020850194506020810190506103b0565b868310156103f257848901516103ee601f8916826102fb565b8355505b6001600288020188555050505b505050505050565b611fd0806104166000396000f3fe608060405234801561001057600080fd5b506004361061012c5760003560e01c806370a08231116100ad578063b88d4fde11610071578063b88d4fde14610369578063c87b56dd14610385578063e5f2e322146103b5578063e985e9c5146103e5578063f307fd43146104155761012c565b806370a08231146102b15780637d3b76e1146102e15780638da5cb5b1461031157806395d89b411461032f578063a22cb4651461034d5761012c565b806323b872dd116100f457806323b872dd146101e95780632f745c59146102055780634f6ccce7146102355780636352211e146102655780636427acca146102955761012c565b806301ffc9a71461013157806306fdde0314610161578063081812fc1461017f578063095ea7b3146101af57806318160ddd146101cb575b600080fd5b61014b60048036038101906101469190611299565b610445565b60405161015891906112e1565b60405180910390f35b610169610457565b604051610176919061138c565b60405180910390f35b610199600480360381019061019491906113e4565b6104e9565b6040516101a69190611452565b60405180910390f35b6101c960048036038101906101c49190611499565b61053e565b005b6101d3610579565b6040516101e091906114e8565b60405180910390f35b61020360048036038101906101fe9190611503565b610586565b005b61021f600480360381019061021a9190611499565b6105c1565b60405161022c91906114e8565b60405180910390f35b61024f600480360381019061024a91906113e4565b610666565b60405161025c91906114e8565b60405180910390f35b61027f600480360381019061027a91906113e4565b6106d7565b60405161028c9190611452565b60405180910390f35b6102af60048036038101906102aa919061168b565b61075e565b005b6102cb60048036038101906102c691906116d4565b6109b9565b6040516102d891906114e8565b60405180910390f35b6102fb60048036038101906102f691906116d4565b610a70565b604051610308919061171a565b60405180910390f35b610319610a88565b6040516103269190611452565b60405180910390f35b610337610aae565b604051610344919061138c565b60405180910390f35b61036760048036038101906103629190611761565b610b40565b005b610383600480360381019061037e9190611842565b610b7b565b005b61039f600480360381019061039a91906113e4565b610bb6565b6040516103ac919061138c565b60405180910390f35b6103cf60048036038101906103ca91906118f1565b610bc8565b6040516103dc9190611452565b60405180910390f35b6103ff60048036038101906103fa919061191e565b610bfb565b60405161040c91906112e1565b60405180910390f35b61042f600480360381019061042a919061195e565b610c03565b60405161043c91906112e1565b60405180910390f35b600061045082610c32565b9050919050565b606060008054610466906119cd565b80601f0160208091040260200160405190810160405280929190818152602001828054610492906119cd565b80156104df5780601f106104b4576101008083540402835291602001916104df565b820191906000526020600020905b8154815290600101906020018083116104c257829003601f168201915b5050505050905090565b6000816104f581610cac565b610534576040517f08c379a000000000000000000000000000000000000000000000000000000000815260040161052b90611a4a565b60405180910390fd5b6000915050919050565b6040517f08c379a000000000000000000000000000000000000000000000000000000000815260040161057090611ab6565b60405180910390fd5b6000600480549050905090565b6040517f08c379a00000000000000000000000000000000000000000000000000000000081526004016105b890611b22565b60405180910390fd5b60006105cc836109b9565b821061060d576040517f08c379a000000000000000000000000000000000000000000000000000000000815260040161060490611b8e565b60405180910390fd5b600560008473ffffffffffffffffffffffffffffffffffffffff1673ffffffffffffffffffffffffffffffffffffffff168152602001908152602001600020600083815260200190815260200160002054905092915050565b6000610670610579565b82106106b1576040517f08c379a00000000000000000000000000000000000000000000000000000000081526004016106a890611b8e565b60405180910390fd5b600482815481106106c5576106c4611bae565b5b90600052602060002001549050919050565b6000816106e381610cac565b610722576040517f08c379a000000000000000000000000000000000000000000000000000000000815260040161071990611a4a565b60405180910390fd5b6003600084815260200190815260200160002060009054906101000a900473ffffffffffffffffffffffffffffffffffffffff16915050919050565b6000801b600b60003373ffffffffffffffffffffffffffffffffffffffff1673ffffffffffffffffffffffffffffffffffffffff16815260200190815260200160002054146107e2576040517f08c379a00000000000000000000000000000000000000000000000000000000081526004016107d990611c29565b60405180910390fd5b600c60006107ef83610d18565b815260200190815260200160002060009054906101000a900473ffffffffffffffffffffffffffffffffffffffff1673ffffffffffffffffffffffffffffffffffffffff163373ffffffffffffffffffffffffffffffffffffffff160361088b576040517f08c379a000000000000000000000000000000000000000000000000000000000815260040161088290611cbb565b60405180910390fd5b61089481610d18565b600b60003373ffffffffffffffffffffffffffffffffffffffff1673ffffffffffffffffffffffffffffffffffffffff1681526020019081526020016000208190555033600c6000600b60003373ffffffffffffffffffffffffffffffffffffffff1673ffffffffffffffffffffffffffffffffffffffff16815260200190815260200160002054815260200190815260200160002060006101000a81548173ffffffffffffffffffffffffffffffffffffffff021916908373ffffffffffffffffffffffffffffffffffffffff1602179055503373ffffffffffffffffffffffffffffffffffffffff167f783e607e94efcb9adce3489c806008ddc378d784ae22a1f801458720054325a2826040516109ae919061138c565b60405180910390a250565b60008073ffffffffffffffffffffffffffffffffffffffff168273ffffffffffffffffffffffffffffffffffffffff1603610a29576040517f08c379a0000000000000000000000000000000000000000000000000000000008152600401610a2090611d27565b60405180910390fd5b600260008373ffffffffffffffffffffffffffffffffffffffff1673ffffffffffffffffffffffffffffffffffffffff168152602001908152602001600020549050919050565b600b6020528060005260406000206000915090505481565b600960009054906101000a900473ffffffffffffffffffffffffffffffffffffffff1681565b606060018054610abd906119cd565b80601f0160208091040260200160405190810160405280929190818152602001828054610ae9906119cd565b8015610b365780601f10610b0b57610100808354040283529160200191610b36565b820191906000526020600020905b815481529060010190602001808311610b1957829003601f168201915b5050505050905090565b6040517f08c379a0000000000000000000000000000000000000000000000000000000008152600401610b7290611d93565b60405180910390fd5b6040517f08c379a0000000000000000000000000000000000000000000000000000000008152600401610bad90611b22565b60405180910390fd5b6060610bc182610d48565b9050919050565b600c6020528060005260406000206000915054906101000a900473ffffffffffffffffffffffffffffffffffffffff1681565b600092915050565b600d6020528160005260406000206020528060005260406000206000915091509054906101000a900460ff1681565b60007f780e9d63000000000000000000000000000000000000000000000000000000007bffffffffffffffffffffffffffffffffffffffffffffffffffffffff1916827bffffffffffffffffffffffffffffffffffffffffffffffffffffffff19161480610ca55750610ca482610e9b565b5b9050919050565b60008073ffffffffffffffffffffffffffffffffffffffff166003600084815260200190815260200160002060009054906101000a900473ffffffffffffffffffffffffffffffffffffffff1673ffffffffffffffffffffffffffffffffffffffff1614159050919050565b600081604051602001610d2b9190611def565b604051602081830303815290604052805190602001209050919050565b606081610d5481610cac565b610d93576040517f08c379a0000000000000000000000000000000000000000000000000000000008152600401610d8a90611a4a565b60405180910390fd5b6000600860008581526020019081526020016000208054610db3906119cd565b80601f0160208091040260200160405190810160405280929190818152602001828054610ddf906119cd565b8015610e2c5780601f10610e0157610100808354040283529160200191610e2c565b820191906000526020600020905b815481529060010190602001808311610e0f57829003601f168201915b505050505090506000610e3d610f7d565b90506000815103610e52578193505050610e95565b600082511115610e87578082604051602001610e6f929190611e06565b60405160208183030381529060405293505050610e95565b610e9085610fba565b935050505b50919050565b60007fc22876c3000000000000000000000000000000000000000000000000000000007bffffffffffffffffffffffffffffffffffffffffffffffffffffffff1916827bffffffffffffffffffffffffffffffffffffffffffffffffffffffff19161480610f6657507f5b5e139f000000000000000000000000000000000000000000000000000000007bffffffffffffffffffffffffffffffffffffffffffffffffffffffff1916827bffffffffffffffffffffffffffffffffffffffffffffffffffffffff1916145b80610f765750610f7582611063565b5b9050919050565b60606040518060400160405280600781526020017f697066733a2f2f00000000000000000000000000000000000000000000000000815250905090565b606081610fc681610cac565b611005576040517f08c379a0000000000000000000000000000000000000000000000000000000008152600401610ffc90611a4a565b60405180910390fd5b600061100f610f7d565b9050600081511161102f576040518060200160405280600081525061105a565b80611039856110cd565b60405160200161104a929190611e06565b6040516020818303038152906040525b92505050919050565b60007f01ffc9a7000000000000000000000000000000000000000000000000000000007bffffffffffffffffffffffffffffffffffffffffffffffffffffffff1916827bffffffffffffffffffffffffffffffffffffffffffffffffffffffff1916149050919050565b606060008203611114576040518060400160405280600181526020017f30000000000000000000000000000000000000000000000000000000000000008152509050611228565b600082905060005b6000821461114657808061112f90611e59565b915050600a8261113f9190611ed0565b915061111c565b60008167ffffffffffffffff81111561116257611161611560565b5b6040519080825280601f01601f1916602001820160405280156111945781602001600182028036833780820191505090505b5090505b60008514611221576001826111ad9190611f01565b9150600a856111bc9190611f35565b60306111c89190611f66565b60f81b8183815181106111de576111dd611bae565b5b60200101907effffffffffffffffffffffffffffffffffffffffffffffffffffffffffffff1916908160001a905350600a8561121a9190611ed0565b9450611198565b8093505050505b919050565b6000604051905090565b600080fd5b600080fd5b60007fffffffff0000000000000000000000000000000000000000000000000000000082169050919050565b61127681611241565b811461128157600080fd5b50565b6000813590506112938161126d565b92915050565b6000602082840312156112af576112ae611237565b5b60006112bd84828501611284565b91505092915050565b60008115159050919050565b6112db816112c6565b82525050565b60006020820190506112f660008301846112d2565b92915050565b600081519050919050565b600082825260208201905092915050565b60005b8381101561133657808201518184015260208101905061131b565b60008484015250505050565b6000601f19601f8301169050919050565b600061135e826112fc565b6113688185611307565b9350611378818560208601611318565b61138181611342565b840191505092915050565b600060208201905081810360008301526113a68184611353565b905092915050565b6000819050919050565b6113c1816113ae565b81146113cc57600080fd5b50565b6000813590506113de816113b8565b92915050565b6000602082840312156113fa576113f9611237565b5b6000611408848285016113cf565b91505092915050565b600073ffffffffffffffffffffffffffffffffffffffff82169050919050565b600061143c82611411565b9050919050565b61144c81611431565b82525050565b60006020820190506114676000830184611443565b92915050565b61147681611431565b811461148157600080fd5b50565b6000813590506114938161146d565b92915050565b600080604083850312156114b0576114af611237565b5b60006114be85828601611484565b92505060206114cf858286016113cf565b9150509250929050565b6114e2816113ae565b82525050565b60006020820190506114fd60008301846114d9565b92915050565b60008060006060848603121561151c5761151b611237565b5b600061152a86828701611484565b935050602061153b86828701611484565b925050604061154c868287016113cf565b9150509250925092565b600080fd5b600080fd5b7f4e487b7100000000000000000000000000000000000000000000000000000000600052604160045260246000fd5b61159882611342565b810181811067ffffffffffffffff821117156115b7576115b6611560565b5b80604052505050565b60006115ca61122d565b90506115d6828261158f565b919050565b600067ffffffffffffffff8211156115f6576115f5611560565b5b6115ff82611342565b9050602081019050919050565b82818337600083830152505050565b600061162e611629846115db565b6115c0565b90508281526020810184848401111561164a5761164961155b565b5b61165584828561160c565b509392505050565b600082601f83011261167257611671611556565b5b813561168284826020860161161b565b91505092915050565b6000602082840312156116a1576116a0611237565b5b600082013567ffffffffffffffff8111156116bf576116be61123c565b5b6116cb8482850161165d565b91505092915050565b6000602082840312156116ea576116e9611237565b5b60006116f884828501611484565b91505092915050565b6000819050919050565b61171481611701565b82525050565b600060208201905061172f600083018461170b565b92915050565b61173e816112c6565b811461174957600080fd5b50565b60008135905061175b81611735565b92915050565b6000806040838503121561177857611777611237565b5b600061178685828601611484565b92505060206117978582860161174c565b9150509250929050565b600067ffffffffffffffff8211156117bc576117bb611560565b5b6117c582611342565b9050602081019050919050565b60006117e56117e0846117a1565b6115c0565b9050828152602081018484840111156118015761180061155b565b5b61180c84828561160c565b509392505050565b600082601f83011261182957611828611556565b5b81356118398482602086016117d2565b91505092915050565b6000806000806080858703121561185c5761185b611237565b5b600061186a87828801611484565b945050602061187b87828801611484565b935050604061188c878288016113cf565b925050606085013567ffffffffffffffff8111156118ad576118ac61123c565b5b6118b987828801611814565b91505092959194509250565b6118ce81611701565b81146118d957600080fd5b50565b6000813590506118eb816118c5565b92915050565b60006020828403121561190757611906611237565b5b6000611915848285016118dc565b91505092915050565b6000806040838503121561193557611934611237565b5b600061194385828601611484565b925050602061195485828601611484565b9150509250929050565b6000806040838503121561197557611974611237565b5b6000611983858286016118dc565b9250506020611994858286016118dc565b9150509250929050565b7f4e487b7100000000000000000000000000000000000000000000000000000000600052602260045260246000fd5b600060028204905060018216806119e557607f821691505b6020821081036119f8576119f761199e565b5b50919050565b7f6e6f74206d696e74656421000000000000000000000000000000000000000000600082015250565b6000611a34600b83611307565b9150611a3f826119fe565b602082019050919050565b60006020820190508181036000830152611a6381611a27565b9050919050565b7f6e6f7420617070726f7665000000000000000000000000000000000000000000600082015250565b6000611aa0600b83611307565b9150611aab82611a6a565b602082019050919050565b60006020820190508181036000830152611acf81611a93565b9050919050565b7f6e6f74207472616e736665720000000000000000000000000000000000000000600082015250565b6000611b0c600c83611307565b9150611b1782611ad6565b602082019050919050565b60006020820190508181036000830152611b3b81611aff565b9050919050565b7f6f7574206f6620626f6e64730000000000000000000000000000000000000000600082015250565b6000611b78600c83611307565b9150611b8382611b42565b602082019050919050565b60006020820190508181036000830152611ba781611b6b565b9050919050565b7f4e487b7100000000000000000000000000000000000000000000000000000000600052603260045260246000fd5b7f416c726561647920726567697374656400000000000000000000000000000000600082015250565b6000611c13601083611307565b9150611c1e82611bdd565b602082019050919050565b60006020820190508181036000830152611c4281611c06565b9050919050565b7f4d696e6973746572206f6e6c792063616e2068617665206f6e65206f7267616e60008201527f697a6174696f6e00000000000000000000000000000000000000000000000000602082015250565b6000611ca5602783611307565b9150611cb082611c49565b604082019050919050565b60006020820190508181036000830152611cd481611c98565b9050919050565b7f6f776e65722063616e6e6f74206265207a65726f000000000000000000000000600082015250565b6000611d11601483611307565b9150611d1c82611cdb565b602082019050919050565b60006020820190508181036000830152611d4081611d04565b9050919050565b7f6e6f742073657420617070726f76616c20666f7220616c6c0000000000000000600082015250565b6000611d7d601883611307565b9150611d8882611d47565b602082019050919050565b60006020820190508181036000830152611dac81611d70565b9050919050565b600081905092915050565b6000611dc9826112fc565b611dd38185611db3565b9350611de3818560208601611318565b80840191505092915050565b6000611dfb8284611dbe565b915081905092915050565b6000611e128285611dbe565b9150611e1e8284611dbe565b91508190509392505050565b7f4e487b7100000000000000000000000000000000000000000000000000000000600052601160045260246000fd5b6000611e64826113ae565b91507fffffffffffffffffffffffffffffffffffffffffffffffffffffffffffffffff8203611e9657611e95611e2a565b5b600182019050919050565b7f4e487b7100000000000000000000000000000000000000000000000000000000600052601260045260246000fd5b6000611edb826113ae565b9150611ee6836113ae565b925082611ef657611ef5611ea1565b5b828204905092915050565b6000611f0c826113ae565b9150611f17836113ae565b9250828203905081811115611f2f57611f2e611e2a565b5b92915050565b6000611f40826113ae565b9150611f4b836113ae565b925082611f5b57611f5a611ea1565b5b828206905092915050565b6000611f71826113ae565b9150611f7c836113ae565b9250828201905080821115611f9457611f93611e2a565b5b9291505056fea2646970667358221220f9731f472741b90e051c89573cfc78bc933949029cfd003a3f6ea1ea6f78640164736f6c634300081c0033",
  "linkReferences": {},
  "deployedLinkReferences": {}
}