{
  "_format": "hh-sol-artifact-1",
  "contractName": "MyToken",
  "sourceName": "contracts/MyToken.sol",
  "abi": [
    {
      "inputs": [],
      "stateMutability": "nonpayable",
      "type": "constructor"
    },
    {
      "anonymous": false,
      "inputs": [
        {
          "indexed": true,
          "internalType": "address",
          "name": "owner",
          "type": "address"
        },
        {
          "indexed": true,
          "internalType": "address",
          "name": "approved",
          "type": "address"
        },
        {
          "indexed": true,
          "internalType": "uint256",
          "name": "tokenId",
          "type": "uint256"
        }
      ],
      "name": "Approval",
      "type": "event"
    },
    {
      "anonymous": false,
      "inputs": [
        {
          "indexed": true,
          "internalType": "address",
          "name": "owner",
          "type": "address"
        },
        {
          "indexed": true,
          "internalType": "address",
          "name": "operator",
          "type": "address"
        },
        {
          "indexed": false,
          "internalType": "bool",
          "name": "approved",
          "type": "bool"
        }
      ],
      "name": "ApprovalForAll",
      "type": "event"
    },
    {
      "anonymous": false,
      "inputs": [
        {
          "indexed": true,
          "internalType": "address",
          "name": "from",
          "type": "address"
        },
        {
          "indexed": true,
          "internalType": "address",
          "name": "to",
          "type": "address"
        },
        {
          "indexed": true,
          "internalType": "uint256",
          "name": "tokenId",
          "type": "uint256"
        }
      ],
      "name": "Transfer",
      "type": "event"
    },
    {
      "anonymous": false,
      "inputs": [
        {
          "indexed": true,
          "internalType": "address",
          "name": "teacher",
          "type": "address"
        },
        {
          "indexed": false,
          "internalType": "bytes32",
          "name": "id",
          "type": "bytes32"
        },
        {
          "indexed": false,
          "internalType": "string",
          "name": "name",
          "type": "string"
        },
        {
          "indexed": false,
          "internalType": "string",
          "name": "urlCourseImage",
          "type": "string"
        }
      ],
      "name": "courses",
      "type": "event"
    },
    {
      "anonymous": false,
      "inputs": [
        {
          "indexed": true,
          "internalType": "address",
          "name": "teacherAddress",
          "type": "address"
        },
        {
          "indexed": false,
          "internalType": "string",
          "name": "name",
          "type": "string"
        }
      ],
      "name": "teacherRegister",
      "type": "event"
    },
    {
      "inputs": [
        {
          "internalType": "address",
          "name": "",
          "type": "address"
        },
        {
          "internalType": "bytes32",
          "name": "",
          "type": "bytes32"
        }
      ],
      "name": "Courses",
      "outputs": [
        {
          "internalType": "bool",
          "name": "",
          "type": "bool"
        }
      ],
      "stateMutability": "view",
      "type": "function"
    },
    {
      "inputs": [
        {
          "internalType": "bytes32",
          "name": "",
          "type": "bytes32"
        }
      ],
      "name": "Teachers",
      "outputs": [
        {
          "internalType": "address",
          "name": "",
          "type": "address"
        }
      ],
      "stateMutability": "view",
      "type": "function"
    },
    {
      "inputs": [
        {
          "internalType": "address",
          "name": "student",
          "type": "address"
        },
        {
          "internalType": "uint256",
          "name": "id",
          "type": "uint256"
        }
      ],
      "name": "Verify",
      "outputs": [
        {
          "internalType": "bool",
          "name": "",
          "type": "bool"
        }
      ],
      "stateMutability": "view",
      "type": "function"
    },
    {
      "inputs": [
        {
          "internalType": "address",
          "name": "to",
          "type": "address"
        },
        {
          "internalType": "uint256",
          "name": "tokenId",
          "type": "uint256"
        }
      ],
      "name": "approve",
      "outputs": [],
      "stateMutability": "nonpayable",
      "type": "function"
    },
    {
      "inputs": [
        {
          "internalType": "address",
          "name": "owner",
          "type": "address"
        }
      ],
      "name": "balanceOf",
      "outputs": [
        {
          "internalType": "uint256",
          "name": "",
          "type": "uint256"
        }
      ],
      "stateMutability": "view",
      "type": "function"
    },
    {
      "inputs": [
        {
          "internalType": "string",
          "name": "_name",
          "type": "string"
        },
        {
          "internalType": "address",
          "name": "_student",
          "type": "address"
        },
        {
          "internalType": "string",
          "name": "uri",
          "type": "string"
        }
      ],
      "name": "createCert",
      "outputs": [],
      "stateMutability": "nonpayable",
      "type": "function"
    },
    {
      "inputs": [
        {
          "internalType": "string",
          "name": "_name",
          "type": "string"
        },
        {
          "internalType": "string",
          "name": "urlCourseImage",
          "type": "string"
        }
      ],
      "name": "createCourse",
      "outputs": [],
      "stateMutability": "nonpayable",
      "type": "function"
    },
    {
      "inputs": [
        {
          "internalType": "uint256",
          "name": "tokenId",
          "type": "uint256"
        }
      ],
      "name": "getApproved",
      "outputs": [
        {
          "internalType": "address",
          "name": "",
          "type": "address"
        }
      ],
      "stateMutability": "view",
      "type": "function"
    },
    {
      "inputs": [
        {
          "internalType": "address",
          "name": "owner",
          "type": "address"
        },
        {
          "internalType": "address",
          "name": "operator",
          "type": "address"
        }
      ],
      "name": "isApprovedForAll",
      "outputs": [
        {
          "internalType": "bool",
          "name": "",
          "type": "bool"
        }
      ],
      "stateMutability": "view",
      "type": "function"
    },
    {
      "inputs": [],
      "name": "name",
      "outputs": [
        {
          "internalType": "string",
          "name": "",
          "type": "string"
        }
      ],
      "stateMutability": "view",
      "type": "function"
    },
    {
      "inputs": [],
      "name": "owner",
      "outputs": [
        {
          "internalType": "address",
          "name": "",
          "type": "address"
        }
      ],
      "stateMutability": "view",
      "type": "function"
    },
    {
      "inputs": [
        {
          "internalType": "uint256",
          "name": "tokenId",
          "type": "uint256"
        }
      ],
      "name": "ownerOf",
      "outputs": [
        {
          "internalType": "address",
          "name": "",
          "type": "address"
        }
      ],
      "stateMutability": "view",
      "type": "function"
    },
    {
      "inputs": [
        {
          "internalType": "string",
          "name": "_name",
          "type": "string"
        }
      ],
      "name": "registerAsTeacher",
      "outputs": [],
      "stateMutability": "nonpayable",
      "type": "function"
    },
    {
      "inputs": [
        {
          "internalType": "address",
          "name": "from",
          "type": "address"
        },
        {
          "internalType": "address",
          "name": "to",
          "type": "address"
        },
        {
          "internalType": "uint256",
          "name": "tokenId",
          "type": "uint256"
        },
        {
          "internalType": "bytes",
          "name": "data",
          "type": "bytes"
        }
      ],
      "name": "safeTransferFrom",
      "outputs": [],
      "stateMutability": "nonpayable",
      "type": "function"
    },
    {
      "inputs": [
        {
          "internalType": "address",
          "name": "operator",
          "type": "address"
        },
        {
          "internalType": "bool",
          "name": "approved",
          "type": "bool"
        }
      ],
      "name": "setApprovalForAll",
      "outputs": [],
      "stateMutability": "nonpayable",
      "type": "function"
    },
    {
      "inputs": [
        {
          "internalType": "bytes4",
          "name": "interfaceId",
          "type": "bytes4"
        }
      ],
      "name": "supportsInterface",
      "outputs": [
        {
          "internalType": "bool",
          "name": "",
          "type": "bool"
        }
      ],
      "stateMutability": "view",
      "type": "function"
    },
    {
      "inputs": [],
      "name": "symbol",
      "outputs": [
        {
          "internalType": "string",
          "name": "",
          "type": "string"
        }
      ],
      "stateMutability": "view",
      "type": "function"
    },
    {
      "inputs": [
        {
          "internalType": "uint256",
          "name": "tokenId",
          "type": "uint256"
        }
      ],
      "name": "tokenURI",
      "outputs": [
        {
          "internalType": "string",
          "name": "",
          "type": "string"
        }
      ],
      "stateMutability": "view",
      "type": "function"
    },
    {
      "inputs": [
        {
          "internalType": "address",
          "name": "from",
          "type": "address"
        },
        {
          "internalType": "address",
          "name": "to",
          "type": "address"
        },
        {
          "internalType": "uint256",
          "name": "tokenId",
          "type": "uint256"
        }
      ],
      "name": "transferFrom",
      "outputs": [],
      "stateMutability": "nonpayable",
      "type": "function"
    }
  ],
  "bytecode": "0x60806040526000600a5534801561001557600080fd5b506040518060400160405280600781526020017f4d79546f6b656e000000000000000000000000000000000000000000000000008152506040518060400160405280600381526020017f4d544b00000000000000000000000000000000000000000000000000000000008152508160009081610091919061033a565b5080600190816100a1919061033a565b50505033600560006101000a81548173ffffffffffffffffffffffffffffffffffffffff021916908373ffffffffffffffffffffffffffffffffffffffff16021790555061040c565b600081519050919050565b7f4e487b7100000000000000000000000000000000000000000000000000000000600052604160045260246000fd5b7f4e487b7100000000000000000000000000000000000000000000000000000000600052602260045260246000fd5b6000600282049050600182168061016b57607f821691505b60208210810361017e5761017d610124565b5b50919050565b60008190508160005260206000209050919050565b60006020601f8301049050919050565b600082821b905092915050565b6000600883026101e67fffffffffffffffffffffffffffffffffffffffffffffffffffffffffffffffff826101a9565b6101f086836101a9565b95508019841693508086168417925050509392505050565b6000819050919050565b6000819050919050565b600061023761023261022d84610208565b610212565b610208565b9050919050565b6000819050919050565b6102518361021c565b61026561025d8261023e565b8484546101b6565b825550505050565b600090565b61027a61026d565b610285818484610248565b505050565b5b818110156102a95761029e600082610272565b60018101905061028b565b5050565b601f8211156102ee576102bf81610184565b6102c884610199565b810160208510156102d7578190505b6102eb6102e385610199565b83018261028a565b50505b505050565b600082821c905092915050565b6000610311600019846008026102f3565b1980831691505092915050565b600061032a8383610300565b9150826002028217905092915050565b610343826100ea565b67ffffffffffffffff81111561035c5761035b6100f5565b5b6103668254610153565b6103718282856102ad565b600060209050601f8311600181146103a45760008415610392578287015190505b61039c858261031e565b865550610404565b601f1984166103b286610184565b60005b828110156103da578489015182556001820191506020850194506020810190506103b5565b868310156103f757848901516103f3601f891682610300565b8355505b6001600288020188555050505b505050505050565b612b898061041b6000396000f3fe608060405234801561001057600080fd5b50600436106101215760003560e01c80637083d6e3116100ad578063a26a795311610071578063a26a79531461032c578063b88d4fde14610348578063c87b56dd14610364578063defd87f514610394578063e985e9c5146103c457610121565b80637083d6e31461027457806370a08231146102a45780638da5cb5b146102d457806395d89b41146102f2578063a22cb4651461031057610121565b80630c52643b116100f45780630c52643b146101c05780632320cb32146101dc57806323b872dd146101f857806337f50f00146102145780636352211e1461024457610121565b806301ffc9a71461012657806306fdde0314610156578063081812fc14610174578063095ea7b3146101a4575b600080fd5b610140600480360381019061013b91906117ce565b6103f4565b60405161014d9190611816565b60405180910390f35b61015e6104d6565b60405161016b91906118c1565b60405180910390f35b61018e60048036038101906101899190611919565b610568565b60405161019b9190611987565b60405180910390f35b6101be60048036038101906101b991906119ce565b6105bd565b005b6101da60048036038101906101d59190611b43565b6105f8565b005b6101f660048036038101906101f19190611bce565b61073d565b005b610212600480360381019061020d9190611c17565b610879565b005b61022e60048036038101906102299190611ca0565b6108b4565b60405161023b9190611987565b60405180910390f35b61025e60048036038101906102599190611919565b6108e7565b60405161026b9190611987565b60405180910390f35b61028e600480360381019061028991906119ce565b61096e565b60405161029b9190611816565b60405180910390f35b6102be60048036038101906102b99190611ccd565b6109c6565b6040516102cb9190611d09565b60405180910390f35b6102dc610a7d565b6040516102e99190611987565b60405180910390f35b6102fa610aa3565b60405161030791906118c1565b60405180910390f35b61032a60048036038101906103259190611d50565b610b35565b005b61034660048036038101906103419190611d90565b610b70565b005b610362600480360381019061035d9190611ea9565b610dd1565b005b61037e60048036038101906103799190611919565b610e0c565b60405161038b91906118c1565b60405180910390f35b6103ae60048036038101906103a99190611f2c565b610e1e565b6040516103bb9190611816565b60405180910390f35b6103de60048036038101906103d99190611f6c565b610e4d565b6040516103eb9190611816565b60405180910390f35b60007fc22876c3000000000000000000000000000000000000000000000000000000007bffffffffffffffffffffffffffffffffffffffffffffffffffffffff1916827bffffffffffffffffffffffffffffffffffffffffffffffffffffffff191614806104bf57507f5b5e139f000000000000000000000000000000000000000000000000000000007bffffffffffffffffffffffffffffffffffffffffffffffffffffffff1916827bffffffffffffffffffffffffffffffffffffffffffffffffffffffff1916145b806104cf57506104ce82610e55565b5b9050919050565b6060600080546104e590611fdb565b80601f016020809104026020016040519081016040528092919081815260200182805461051190611fdb565b801561055e5780601f106105335761010080835404028352916020019161055e565b820191906000526020600020905b81548152906001019060200180831161054157829003601f168201915b5050505050905090565b60008161057481610ebf565b6105b3576040517f08c379a00000000000000000000000000000000000000000000000000000000081526004016105aa90612058565b60405180910390fd5b6000915050919050565b6040517f08c379a00000000000000000000000000000000000000000000000000000000081526004016105ef906120c4565b60405180910390fd5b33600860008273ffffffffffffffffffffffffffffffffffffffff1673ffffffffffffffffffffffffffffffffffffffff16815260200190815260200160002060009054906101000a900460ff16610685576040517f08c379a000000000000000000000000000000000000000000000000000000000815260040161067c90612130565b60405180910390fd5b3373ffffffffffffffffffffffffffffffffffffffff16600960006106a987610f2b565b815260200190815260200160002060009054906101000a900473ffffffffffffffffffffffffffffffffffffffff1673ffffffffffffffffffffffffffffffffffffffff161461072e576040517f08c379a00000000000000000000000000000000000000000000000000000000081526004016107259061219c565b60405180910390fd5b61073782610f5b565b50505050565b60001515600860003373ffffffffffffffffffffffffffffffffffffffff1673ffffffffffffffffffffffffffffffffffffffff16815260200190815260200160002060009054906101000a900460ff161515146107d0576040517f08c379a00000000000000000000000000000000000000000000000000000000081526004016107c790612208565b60405180910390fd5b6001600860003373ffffffffffffffffffffffffffffffffffffffff1673ffffffffffffffffffffffffffffffffffffffff16815260200190815260200160002060006101000a81548160ff0219169083151502179055503373ffffffffffffffffffffffffffffffffffffffff167f7066f24dd15de03745edab9fd899d5c6a3e2ad4e6504c5f52db5deef91d43aa28260405161086e91906118c1565b60405180910390a250565b6040517f08c379a00000000000000000000000000000000000000000000000000000000081526004016108ab90612274565b60405180910390fd5b60096020528060005260406000206000915054906101000a900473ffffffffffffffffffffffffffffffffffffffff1681565b6000816108f381610ebf565b610932576040517f08c379a000000000000000000000000000000000000000000000000000000000815260040161092990612058565b60405180910390fd5b6003600084815260200190815260200160002060009054906101000a900473ffffffffffffffffffffffffffffffffffffffff16915050919050565b600061097982610ebf565b61098657600090506109c0565b8273ffffffffffffffffffffffffffffffffffffffff166109a6836108e7565b73ffffffffffffffffffffffffffffffffffffffff161490505b92915050565b60008073ffffffffffffffffffffffffffffffffffffffff168273ffffffffffffffffffffffffffffffffffffffff1603610a36576040517f08c379a0000000000000000000000000000000000000000000000000000000008152600401610a2d906122e0565b60405180910390fd5b600260008373ffffffffffffffffffffffffffffffffffffffff1673ffffffffffffffffffffffffffffffffffffffff168152602001908152602001600020549050919050565b600560009054906101000a900473ffffffffffffffffffffffffffffffffffffffff1681565b606060018054610ab290611fdb565b80601f0160208091040260200160405190810160405280929190818152602001828054610ade90611fdb565b8015610b2b5780601f10610b0057610100808354040283529160200191610b2b565b820191906000526020600020905b815481529060010190602001808311610b0e57829003601f168201915b5050505050905090565b6040517f08c379a0000000000000000000000000000000000000000000000000000000008152600401610b679061234c565b60405180910390fd5b33600860008273ffffffffffffffffffffffffffffffffffffffff1673ffffffffffffffffffffffffffffffffffffffff16815260200190815260200160002060009054906101000a900460ff16610bfd576040517f08c379a0000000000000000000000000000000000000000000000000000000008152600401610bf490612130565b60405180910390fd5b600073ffffffffffffffffffffffffffffffffffffffff1660096000610c2286610f2b565b815260200190815260200160002060009054906101000a900473ffffffffffffffffffffffffffffffffffffffff1673ffffffffffffffffffffffffffffffffffffffff1614610ca7576040517f08c379a0000000000000000000000000000000000000000000000000000000008152600401610c9e906123b8565b60405180910390fd5b6001600760003373ffffffffffffffffffffffffffffffffffffffff1673ffffffffffffffffffffffffffffffffffffffff1681526020019081526020016000206000610cf386610f2b565b815260200190815260200160002060006101000a81548160ff0219169083151502179055503360096000610d2686610f2b565b815260200190815260200160002060006101000a81548173ffffffffffffffffffffffffffffffffffffffff021916908373ffffffffffffffffffffffffffffffffffffffff1602179055503373ffffffffffffffffffffffffffffffffffffffff167f77716f1a68bf666a8dfe82e6b0e7c9fc3d496ce5095ed10585e71c4eb7321b57610db385610f2b565b8585604051610dc4939291906123e7565b60405180910390a2505050565b6040517f08c379a0000000000000000000000000000000000000000000000000000000008152600401610e0390612274565b60405180910390fd5b6060610e1782610f76565b9050919050565b60076020528160005260406000206020528060005260406000206000915091509054906101000a900460ff1681565b600092915050565b60007f01ffc9a7000000000000000000000000000000000000000000000000000000007bffffffffffffffffffffffffffffffffffffffffffffffffffffffff1916827bffffffffffffffffffffffffffffffffffffffffffffffffffffffff1916149050919050565b60008073ffffffffffffffffffffffffffffffffffffffff166003600084815260200190815260200160002060009054906101000a900473ffffffffffffffffffffffffffffffffffffffff1673ffffffffffffffffffffffffffffffffffffffff1614159050919050565b600081604051602001610f3e9190612468565b604051602081830303815290604052805190602001209050919050565b6000610f66336110c9565b9050610f7281836110fe565b5050565b606081610f8281610ebf565b610fc1576040517f08c379a0000000000000000000000000000000000000000000000000000000008152600401610fb890612058565b60405180910390fd5b6000600460008581526020019081526020016000208054610fe190611fdb565b80601f016020809104026020016040519081016040528092919081815260200182805461100d90611fdb565b801561105a5780601f1061102f5761010080835404028352916020019161105a565b820191906000526020600020905b81548152906001019060200180831161103d57829003601f168201915b50505050509050600061106b61116d565b905060008151036110805781935050506110c3565b6000825111156110b557808260405160200161109d92919061247f565b604051602081830303815290604052935050506110c3565b6110be85611184565b935050505b50919050565b600080600a5490506001600a60008282546110e491906124d2565b925050819055506110f5838261122d565b80915050919050565b8161110881610ebf565b611147576040517f08c379a000000000000000000000000000000000000000000000000000000000815260040161113e90612058565b60405180910390fd5b8160046000858152602001908152602001600020908161116791906126b2565b50505050565b606060405180602001604052806000815250905090565b60608161119081610ebf565b6111cf576040517f08c379a00000000000000000000000000000000000000000000000000000000081526004016111c690612058565b60405180910390fd5b60006111d961116d565b905060008151116111f95760405180602001604052806000815250611224565b806112038561124b565b60405160200161121492919061247f565b6040516020818303038152906040525b92505050919050565b6112478282604051806020016040528060008152506113ab565b5050565b606060008203611292576040518060400160405280600181526020017f300000000000000000000000000000000000000000000000000000000000000081525090506113a6565b600082905060005b600082146112c45780806112ad90612784565b915050600a826112bd91906127fb565b915061129a565b60008167ffffffffffffffff8111156112e0576112df611a18565b5b6040519080825280601f01601f1916602001820160405280156113125781602001600182028036833780820191505090505b5090505b6000851461139f5760018261132b919061282c565b9150600a8561133a9190612860565b603061134691906124d2565b60f81b81838151811061135c5761135b612891565b5b60200101907effffffffffffffffffffffffffffffffffffffffffffffffffffffffffffff1916908160001a905350600a8561139891906127fb565b9450611316565b8093505050505b919050565b6113b58383611406565b6113c260008484846115dd565b611401576040517f08c379a00000000000000000000000000000000000000000000000000000000081526004016113f89061290c565b60405180910390fd5b505050565b600073ffffffffffffffffffffffffffffffffffffffff168273ffffffffffffffffffffffffffffffffffffffff1603611475576040517f08c379a000000000000000000000000000000000000000000000000000000000815260040161146c90612978565b60405180910390fd5b61147e81610ebf565b156114be576040517f08c379a00000000000000000000000000000000000000000000000000000000081526004016114b5906129e4565b60405180910390fd5b6114ca60008383611758565b816003600083815260200190815260200160002060006101000a81548173ffffffffffffffffffffffffffffffffffffffff021916908373ffffffffffffffffffffffffffffffffffffffff160217905550600260008373ffffffffffffffffffffffffffffffffffffffff1673ffffffffffffffffffffffffffffffffffffffff168152602001908152602001600020600081548092919061156c90612784565b9190505550808273ffffffffffffffffffffffffffffffffffffffff16600073ffffffffffffffffffffffffffffffffffffffff167fddf252ad1be2c89b69c2b068fc378daa952ba7f163c4a11628f55a4df523b3ef60405160405180910390a46115d96000838361175d565b5050565b6000808473ffffffffffffffffffffffffffffffffffffffff163b111561174b578373ffffffffffffffffffffffffffffffffffffffff1663150b7a02338786866040518563ffffffff1660e01b815260040161163d9493929190612a59565b6020604051808303816000875af192505050801561167957506040513d601f19601f820116820180604052508101906116769190612aba565b60015b6116fb573d80600081146116a9576040519150601f19603f3d011682016040523d82523d6000602084013e6116ae565b606091505b5060008151036116f3576040517f08c379a00000000000000000000000000000000000000000000000000000000081526004016116ea90612b33565b60405180910390fd5b805181602001fd5b63150b7a0260e01b7bffffffffffffffffffffffffffffffffffffffffffffffffffffffff1916817bffffffffffffffffffffffffffffffffffffffffffffffffffffffff191614915050611750565b600190505b949350505050565b505050565b505050565b6000604051905090565b600080fd5b600080fd5b60007fffffffff0000000000000000000000000000000000000000000000000000000082169050919050565b6117ab81611776565b81146117b657600080fd5b50565b6000813590506117c8816117a2565b92915050565b6000602082840312156117e4576117e361176c565b5b60006117f2848285016117b9565b91505092915050565b60008115159050919050565b611810816117fb565b82525050565b600060208201905061182b6000830184611807565b92915050565b600081519050919050565b600082825260208201905092915050565b60005b8381101561186b578082015181840152602081019050611850565b60008484015250505050565b6000601f19601f8301169050919050565b600061189382611831565b61189d818561183c565b93506118ad81856020860161184d565b6118b681611877565b840191505092915050565b600060208201905081810360008301526118db8184611888565b905092915050565b6000819050919050565b6118f6816118e3565b811461190157600080fd5b50565b600081359050611913816118ed565b92915050565b60006020828403121561192f5761192e61176c565b5b600061193d84828501611904565b91505092915050565b600073ffffffffffffffffffffffffffffffffffffffff82169050919050565b600061197182611946565b9050919050565b61198181611966565b82525050565b600060208201905061199c6000830184611978565b92915050565b6119ab81611966565b81146119b657600080fd5b50565b6000813590506119c8816119a2565b92915050565b600080604083850312156119e5576119e461176c565b5b60006119f3858286016119b9565b9250506020611a0485828601611904565b9150509250929050565b600080fd5b600080fd5b7f4e487b7100000000000000000000000000000000000000000000000000000000600052604160045260246000fd5b611a5082611877565b810181811067ffffffffffffffff82111715611a6f57611a6e611a18565b5b80604052505050565b6000611a82611762565b9050611a8e8282611a47565b919050565b600067ffffffffffffffff821115611aae57611aad611a18565b5b611ab782611877565b9050602081019050919050565b82818337600083830152505050565b6000611ae6611ae184611a93565b611a78565b905082815260208101848484011115611b0257611b01611a13565b5b611b0d848285611ac4565b509392505050565b600082601f830112611b2a57611b29611a0e565b5b8135611b3a848260208601611ad3565b91505092915050565b600080600060608486031215611b5c57611b5b61176c565b5b600084013567ffffffffffffffff811115611b7a57611b79611771565b5b611b8686828701611b15565b9350506020611b97868287016119b9565b925050604084013567ffffffffffffffff811115611bb857611bb7611771565b5b611bc486828701611b15565b9150509250925092565b600060208284031215611be457611be361176c565b5b600082013567ffffffffffffffff811115611c0257611c01611771565b5b611c0e84828501611b15565b91505092915050565b600080600060608486031215611c3057611c2f61176c565b5b6000611c3e868287016119b9565b9350506020611c4f868287016119b9565b9250506040611c6086828701611904565b9150509250925092565b6000819050919050565b611c7d81611c6a565b8114611c8857600080fd5b50565b600081359050611c9a81611c74565b92915050565b600060208284031215611cb657611cb561176c565b5b6000611cc484828501611c8b565b91505092915050565b600060208284031215611ce357611ce261176c565b5b6000611cf1848285016119b9565b91505092915050565b611d03816118e3565b82525050565b6000602082019050611d1e6000830184611cfa565b92915050565b611d2d816117fb565b8114611d3857600080fd5b50565b600081359050611d4a81611d24565b92915050565b60008060408385031215611d6757611d6661176c565b5b6000611d75858286016119b9565b9250506020611d8685828601611d3b565b9150509250929050565b60008060408385031215611da757611da661176c565b5b600083013567ffffffffffffffff811115611dc557611dc4611771565b5b611dd185828601611b15565b925050602083013567ffffffffffffffff811115611df257611df1611771565b5b611dfe85828601611b15565b9150509250929050565b600067ffffffffffffffff821115611e2357611e22611a18565b5b611e2c82611877565b9050602081019050919050565b6000611e4c611e4784611e08565b611a78565b905082815260208101848484011115611e6857611e67611a13565b5b611e73848285611ac4565b509392505050565b600082601f830112611e9057611e8f611a0e565b5b8135611ea0848260208601611e39565b91505092915050565b60008060008060808587031215611ec357611ec261176c565b5b6000611ed1878288016119b9565b9450506020611ee2878288016119b9565b9350506040611ef387828801611904565b925050606085013567ffffffffffffffff811115611f1457611f13611771565b5b611f2087828801611e7b565b91505092959194509250565b60008060408385031215611f4357611f4261176c565b5b6000611f51858286016119b9565b9250506020611f6285828601611c8b565b9150509250929050565b60008060408385031215611f8357611f8261176c565b5b6000611f91858286016119b9565b9250506020611fa2858286016119b9565b9150509250929050565b7f4e487b7100000000000000000000000000000000000000000000000000000000600052602260045260246000fd5b60006002820490506001821680611ff357607f821691505b60208210810361200657612005611fac565b5b50919050565b7f6e6f74206d696e74656421000000000000000000000000000000000000000000600082015250565b6000612042600b8361183c565b915061204d8261200c565b602082019050919050565b6000602082019050818103600083015261207181612035565b9050919050565b7f6e6f7420617070726f7665000000000000000000000000000000000000000000600082015250565b60006120ae600b8361183c565b91506120b982612078565b602082019050919050565b600060208201905081810360008301526120dd816120a1565b9050919050565b7f4f6e6c7920746561636865720000000000000000000000000000000000000000600082015250565b600061211a600c8361183c565b9150612125826120e4565b602082019050919050565b600060208201905081810360008301526121498161210d565b9050919050565b7f446f6e7420686176652061636365737320666f72207468697320636f75727365600082015250565b600061218660208361183c565b915061219182612150565b602082019050919050565b600060208201905081810360008301526121b581612179565b9050919050565b7f416c726561647920726567697374656400000000000000000000000000000000600082015250565b60006121f260108361183c565b91506121fd826121bc565b602082019050919050565b60006020820190508181036000830152612221816121e5565b9050919050565b7f6e6f74207472616e736665720000000000000000000000000000000000000000600082015250565b600061225e600c8361183c565b915061226982612228565b602082019050919050565b6000602082019050818103600083015261228d81612251565b9050919050565b7f6f776e65722063616e6e6f74206265207a65726f000000000000000000000000600082015250565b60006122ca60148361183c565b91506122d582612294565b602082019050919050565b600060208201905081810360008301526122f9816122bd565b9050919050565b7f6e6f742073657420617070726f76616c20666f7220616c6c0000000000000000600082015250565b600061233660188361183c565b915061234182612300565b602082019050919050565b6000602082019050818103600083015261236581612329565b9050919050565b7f436f7572736520616c7265616479206578697374000000000000000000000000600082015250565b60006123a260148361183c565b91506123ad8261236c565b602082019050919050565b600060208201905081810360008301526123d181612395565b9050919050565b6123e181611c6a565b82525050565b60006060820190506123fc60008301866123d8565b818103602083015261240e8185611888565b905081810360408301526124228184611888565b9050949350505050565b600081905092915050565b600061244282611831565b61244c818561242c565b935061245c81856020860161184d565b80840191505092915050565b60006124748284612437565b915081905092915050565b600061248b8285612437565b91506124978284612437565b91508190509392505050565b7f4e487b7100000000000000000000000000000000000000000000000000000000600052601160045260246000fd5b60006124dd826118e3565b91506124e8836118e3565b9250828201905080821115612500576124ff6124a3565b5b92915050565b60008190508160005260206000209050919050565b60006020601f8301049050919050565b600082821b905092915050565b6000600883026125687fffffffffffffffffffffffffffffffffffffffffffffffffffffffffffffffff8261252b565b612572868361252b565b95508019841693508086168417925050509392505050565b6000819050919050565b60006125af6125aa6125a5846118e3565b61258a565b6118e3565b9050919050565b6000819050919050565b6125c983612594565b6125dd6125d5826125b6565b848454612538565b825550505050565b600090565b6125f26125e5565b6125fd8184846125c0565b505050565b5b81811015612621576126166000826125ea565b600181019050612603565b5050565b601f8211156126665761263781612506565b6126408461251b565b8101602085101561264f578190505b61266361265b8561251b565b830182612602565b50505b505050565b600082821c905092915050565b60006126896000198460080261266b565b1980831691505092915050565b60006126a28383612678565b9150826002028217905092915050565b6126bb82611831565b67ffffffffffffffff8111156126d4576126d3611a18565b5b6126de8254611fdb565b6126e9828285612625565b600060209050601f83116001811461271c576000841561270a578287015190505b6127148582612696565b86555061277c565b601f19841661272a86612506565b60005b828110156127525784890151825560018201915060208501945060208101905061272d565b8683101561276f578489015161276b601f891682612678565b8355505b6001600288020188555050505b505050505050565b600061278f826118e3565b91507fffffffffffffffffffffffffffffffffffffffffffffffffffffffffffffffff82036127c1576127c06124a3565b5b600182019050919050565b7f4e487b7100000000000000000000000000000000000000000000000000000000600052601260045260246000fd5b6000612806826118e3565b9150612811836118e3565b925082612821576128206127cc565b5b828204905092915050565b6000612837826118e3565b9150612842836118e3565b925082820390508181111561285a576128596124a3565b5b92915050565b600061286b826118e3565b9150612876836118e3565b925082612886576128856127cc565b5b828206905092915050565b7f4e487b7100000000000000000000000000000000000000000000000000000000600052603260045260246000fd5b7f6e6f6e2d65726337323120726563656976657200000000000000000000000000600082015250565b60006128f660138361183c565b9150612901826128c0565b602082019050919050565b60006020820190508181036000830152612925816128e9565b9050919050565b7f7a65726f206164647265737320746f0000000000000000000000000000000000600082015250565b6000612962600f8361183c565b915061296d8261292c565b602082019050919050565b6000602082019050818103600083015261299181612955565b9050919050565b7f7468697320746f6b656e20696420697320616c7265616479206d696e74656400600082015250565b60006129ce601f8361183c565b91506129d982612998565b602082019050919050565b600060208201905081810360008301526129fd816129c1565b9050919050565b600081519050919050565b600082825260208201905092915050565b6000612a2b82612a04565b612a358185612a0f565b9350612a4581856020860161184d565b612a4e81611877565b840191505092915050565b6000608082019050612a6e6000830187611978565b612a7b6020830186611978565b612a886040830185611cfa565b8181036060830152612a9a8184612a20565b905095945050505050565b600081519050612ab4816117a2565b92915050565b600060208284031215612ad057612acf61176c565b5b6000612ade84828501612aa5565b91505092915050565b7f5472616e7366657220746f206e6f6e2d65726337323120726563656976657200600082015250565b6000612b1d601f8361183c565b9150612b2882612ae7565b602082019050919050565b60006020820190508181036000830152612b4c81612b10565b905091905056fea26469706673582212205e2b66bccdd085b8432d489fd8c23af53098da3249db0e6dd516623d48d21ce864736f6c634300081c0033",
  "linkReferences": {},
  "deployedLinkReferences": {}
}